:100000000C9434000C943E050C9451000C94510057
:100010000C9451000C9451000C9451000C9451001C
:100020000C9451000C9451000C9451000C947606E1
:100030000C9451000C9451000C9451000C945100FC
:100040000C9451000C9451000C9473030C943B03DA
:100050000C9451000C9451000C9451000C945100DC
:100060000C9451000C94510011241FBECFEFD8E026
:10007000DEBFCDBF11E0A0E0B1E0E6EEF1E102C0ED
:1000800005900D92A632B107D9F725E0A6E2B1E0BE
:1000900001C01D92A130B207E1F70E94BE080C9486
:1000A000F1080C9400000F931F93CF93DF93CDB70B
:1000B000DEB7A0970FB6F894DEBF0FBECDBF8E019E
:1000C0000F5F1F4FC8010E94CF0590912A018A81BE
:1000D000981310C0C8010E94A402882359F0E0912F
:1000E0002601F0912701309729F010932901009300
:1000F00028010995A0960FB6F894DEBF0FBECDBFBC
:10010000DF91CF911F910F910895CF93DF93CDB7DA
:10011000DEB7A0970FB6F894DEBF0FBECDBF81E764
:1001200092E00E948401811116C00E94F405882388
:1001300079F1BE016F5F7F4F81E792E00E94E1019C
:10014000CE0101960E947B02CE0101960E9400061C
:1001500081E792E01BC08BE291E00E948401811153
:1001600017C00E94F405882399F0BE016F5F7F4F8E
:100170008BE291E00E94E101CE0101960E947B0298
:10018000CE0101960E9400068BE291E00E94C90117
:10019000A0960FB6F894DEBF0FBECDBFDF91CF9112
:1001A0000895CF93C82F0E949C050E94500783E5B5
:1001B00090E00E942206C0932A0181E792E00E940B
:1001C0007C018BE291E00E947C0165E870E088ECA4
:1001D00090E0CF910C94C707811103C081E792E0B2
:1001E00002C08BE291E00E948D0191E08927089581
:1001F0000F931F93CF93DF93CDB7DEB7A0970FB6C2
:10020000F894DEBF0FBECDBF8C0180912A01898397
:100210006A83FE013396D801BF019D01201B310B7B
:100220009D91992311F09193F8CFFB01E20FF31FF9
:1002300010828DB79EB78097411112C00FB6F89407
:100240009EBF0FBE8DBFADB7BEB7119680E2FE0157
:10025000319601900D928A95E1F781E792E011C005
:100260000FB6F8949EBF0FBE8DBFADB7BEB7119647
:1002700080E2FE01319601900D928A95E1F78BE2C2
:1002800091E00E9496010FB6F894DEBF0FBECDBF7D
:10029000A0960FB6F894DEBF0FBECDBFDF91CF9111
:1002A0001F910F910895909327018093260108953F
:1002B0000F931F93CF93DF93E0912801F0912901D1
:1002C0008F01AF014E5F5F4FDC019D01281B390B91
:1002D000E80169918E01662329F0EA012991AE01B6
:1002E0002D93F3CFDC01A20FB31F1C928081DF910D
:1002F000CF911F910F910895FC01118210821382FA
:10030000128215821482089521E0FC018481958176
:10031000892B09F020E0822F089521E0FC018481DF
:1003200095810A9709F020E0822F0895CF93DF93FB
:10033000CDB7DEB77FB7F894FC01448155814A30D0
:10034000510519F122813381D90165E0AA0FBB1F44
:100350006A95E1F7A80FB91F169660E2FE0135967F
:1003600001900D926A95E1F72930310521F4FC01E5
:100370001382128205C02F5F3F4FFC01338322831B
:100380004F5F5F4FFC01558344837FBFDF91CF9167
:100390000895FC014FB7F89484819581009779F016
:1003A000208131812930310519F41182108204C075
:1003B0002F5F3F4F318320830197958384834FBF05
:1003C00008952FB7F894DC0114964D915C91159720
:1003D000452B81F0ED91FC9135E0EE0FFF1F3A9532
:1003E000E1F7E80FF91F369680E2DB0101900D92EC
:1003F0008A95E1F72FBF08958095982F9F70829579
:100400008F7026EF290F263010F4995C01C0905DA3
:1004100026EF280F263010F4895C0895805D08953A
:10042000382F2FEB290F263028F020ED290F2A3006
:1004300008F0292F9FEB980F963028F080538A30D0
:1004400018F4382F01C0392F822F90E1399F800D89
:1004500011240895FC01DC019D012E1B3F0B8D91A1
:100460008111FACFDF01A20FB31F11978C91225097
:100470003109E20FF31F908110820895EF92FF92ED
:100480000F931F93CF93DF938C01DC0180E0ED018C
:10049000C01BD10B7D019D91992311F0890FF7CFDE
:1004A0000E94FC01F7019083F801EC0FFD1F81838E
:1004B0001282DF91CF911F910F91FF90EF900895DD
:1004C0000F931F93CF93DF93EC010E942A020E94A7
:1004D0001002082FCE010E943E020E941002182F27
:1004E000CE010E942A0281E0011380E0DF91CF91CA
:1004F0001F910F910895EF92FF920F931F93CF9347
:10050000DF938C01DC0180E0ED01C01BD10B7D018C
:100510002D91222349F0822728E09CE8869508F453
:1005200089272A95D9F7F0CF0E94FC01F701908323
:10053000F801EC0FFD1F81831282DF91CF911F9193
:100540000F91FF90EF9008950F931F93CF93DF9338
:10055000EC010E942A020E941002082FCE010E9484
:100560007B020E941002182FCE010E942A0281E015
:10057000011380E0DF91CF911F910F9108951F9398
:10058000CF93DF93CDB7DEB76F970FB6F894DEBF8A
:100590000FBECDBFCE0101960E9458011091B70346
:1005A0000E94F2038DE20E94F2038EE30E94F203A6
:1005B000812F0E94F20380E20E94F203CE01019695
:1005C0000E9476086F960FB6F894DEBF0FBECDBFBF
:1005D000DF91CF911F910895FF920F931F93CF93B7
:1005E000DF93CDB7DEB7C054D1090FB6F894DEBFA4
:1005F0000FBECDBF19821A821B821C82FE01359666
:100600008DE1DF011D928A95E9F762E28E010F5FAD
:100610001F4FC8010E948708DE011396FE01B296A3
:10062000FE2E9F2F9D01201B310B4D91442311F075
:100630004193F8CFFE01E20FF31F10A281E0219653
:100640009FAF21970E94EC0021969FAD21978823B0
:1006500029F041E069818F2D0E94F800C05CDF4FD6
:100660000FB6F894DEBF0FBECDBFDF91CF911F91C3
:100670000F91FF9008951F920F920FB60F921124C1
:100680002F933F934F935F936F937F938F939F939A
:10069000AF93BF93EF93FF9388EB93E00E94D5074E
:1006A000882331F08091C1008F7D8093C1000AC002
:1006B00088EB93E00E941B088093C60088EB93E0D0
:1006C0000E940D08FF91EF91BF91AF919F918F9183
:1006D0007F916F915F914F913F912F910F900FBE3E
:1006E0000F901F9018951F920F920FB60F92112422
:1006F0002F933F934F935F936F937F938F939F932A
:10070000AF93BF93EF93FF938AED93E00E94DC07D2
:10071000882319F08091C60006C06091C6008AED5A
:1007200093E00E94E907FF91EF91BF91AF919F91F4
:100730008F917F916F915F914F913F912F910F908A
:100740000FBE0F901F9018958AED93E00E94D1077D
:1007500088EB93E00E94D1079FB7F8941092C500F0
:1007600087E68093C4001092C00086E08093C200A8
:10077000E1ECF0E088E180838081806880839FBF26
:10078000089588EB93E00E94D5078823D1F39FB7A3
:10079000F8948091C1008F778093C1008091C1004F
:1007A000877E8093C1009FBF8AED93E00C94D107B0
:1007B000CF938AED93E00E94D5078111FACF8AED9D
:1007C00093E00E941B08C82F8AED93E00E940D0859
:1007D0008C2FCF9108958AED93E00E94D50791E088
:1007E00089270895682F88EB93E00E94E907E1ECE0
:1007F000F0E08081806280830895811120C0809123
:1008000025048130B1F050F0823041F0843009F09D
:1008100076C0809122040E946A070BC08091240454
:100820000E94140783E080932504809121040C9496
:100830006A07809124040E94140783E042C081303B
:1008400021F580912504833009F059C0809124045A
:100850000E942207883058F0803210F460E001C016
:1008600061E0809123040E942108809323048091F9
:1008700024040E94140766E874E080E290E00E947D
:10088000CC078093220484E01CC08230E9F480917C
:1008900023040E942C0610922304882329F0682F39
:1008A0008FEF93E00E94E907809124040E942E07B5
:1008B00063E874E080E390E00E94CC078093210419
:1008C00082E0809325040895833059F460E874E051
:1008D00080E490E00E94CC078093210410922504CC
:1008E0000895843061F481E0809325048093FE03B1
:1008F000E091FC03F091FD03309709F0099408950D
:1009000084E00C94FD0383E00C94FD0382E00C94DE
:10091000FD03CF9380E594E00E94D50781112BC0A1
:1009200080E594E00E941B08C82F80E594E00E94B7
:100930000D08CC23F1F08C2F0E94320860934D04F7
:1009400070934E0480934F0481E00E945A088DE416
:1009500094E00E943F0863E275E0882319F080E389
:1009600090E002C080E190E00E94CC0780934C04AC
:100970001FC08FEFFBCF80914A0481110FC01092EE
:100980004904E09AE89A8FEF80934C04E0912704A1
:10099000F0912804309761F0CF91099469E874E0F0
:1009A00080E690E00E94CC0780934C0410924A04A9
:1009B000CF9108950F931F93CF93DF931F92CDB7DD
:1009C000DEB710E001E0E12FF0E0E75DFB4F808152
:1009D0008823F1F01F5F0E944206682F882399F355
:1009E00080E594E069830E94DC0769818111F8CF7A
:1009F00080E594E00E94E90780914C048F3F19F74D
:100A00000E94890400934A0400934904E898DBCFCC
:100A10000F90DF91CF911F910F91089581E00E9477
:100A20005A088DE494E00E943F0863E275E0882351
:100A300019F080E390E002C080E190E00E94CC07D2
:100A400080934C04089580E00E945A0860914D0400
:100A500070914E0480914F040E944908882329F028
:100A60006EE075E080E190E004C069E874E080E346
:100A700090E00E94CC0780934C0408951F920F923F
:100A80000FB60F9211242F933F934F935F936F9361
:100A90007F938F939F93AF93BF93EF93FF93809137
:100AA0002604811111C089B182FB882780F99AE060
:100AB0009A95F1F700C04A998F5F95E19A95F1F701
:100AC00000004A9B13C011C089B182FB992790F99D
:100AD00081E089279AE09A95F1F700C04A9B8F5FE1
:100AE00095E19A95F1F700004A9B8F5F9AE29A95FB
:100AF000F1F700C0823070F080912604811105C0AA
:100B000081E08093260480E003C01092260481E0F7
:100B10000E94FD03E09AFF91EF91BF91AF919F91E9
:100B20008F917F916F915F914F913F912F910F9096
:100B30000FBE0F901F901895CF9380917204811172
:100B40002CC0C1E0C09372040E9450070E944E085E
:100B500080E594E00E94D1078FEF80934C041092BF
:100B60004A0410924904809169008D6F8093690056
:100B7000E89A8AB18B6F8AB95A9810922604C0936A
:100B800025041092FE03109223048FEF93E00E943D
:100B9000D1070E94ED0680932404CF9108951F93FE
:100BA000CF93DF93EC018FEF93E00E94D507811183
:100BB00011C08FEF93E00E94D5078111FACF8FEF1C
:100BC00093E00E941B08182F8FEF93E00E940D08FE
:100BD0001993E9CF18821092FE03DF91CF911F91F4
:100BE00008958091FE03089580914904811105C004
:100BF00081E090912504913009F080E081700895A2
:100C0000AC0190E0E92FF0E0DA01AE0FBF1F2C91AC
:100C1000E75DFB4F222319F020839F5FF3CF108203
:100C20000E94F4058823E1F36AED74E080E190E02E
:100C30000E94CC0780934B0481E080934904809309
:100C40004A0408959093FD038093FC0308959093C4
:100C50002804809327040895E0E0F1E090E02191DA
:100C6000281309C09A3110F481E403C0943240F48F
:100C700086E1890F08959F5F963289F780E0089595
:100C800080E20895CF93DF93C82FDD27C7FDD0956D
:100C9000CE010E94D208892B19F0C154DF4F06C043
:100CA000CE01C0970A9720F4C651DF4F888108C053
:100CB000CE010E94E608892B11F08DEA01C080E088
:100CC000DF91CF910895E1E8F0E080818B7F808310
:100CD0000895E4E7F4E080E09081992331F08F5F9C
:100CE00037968431C9F78FEF089508951F920F92B8
:100CF0000FB60F9211240F931F932F933F934F938F
:100D00005F936F937F938F939F93AF93BF93CF9393
:100D1000DF93EF93FF93C4E7D4E008E714E0888102
:100D2000813011F1823051F589819A8101979A833E
:100D30008983892B19F5ED81FE810995F801808160
:100D4000882359F081508083811108C018828091D6
:100D5000000581508093000511C0F8013197808112
:100D600090E09A8389830AC0F801339780818823B1
:100D700029F08A819B8101969B838A832796095F4C
:100D80001F4FF5E0C030DF0751F68091000581115B
:100D900002C00E946306FF91EF91DF91CF91BF9156
:100DA000AF919F918F917F916F915F914F913F9103
:100DB0002F911F910F910F900FBE0F901F901895BC
:100DC0000E946306E4E7F4E01082379685E0E030A5
:100DD000F807D1F7109200050895CF93CFB7F89494
:100DE0000E94690687FD1CC097E08902F00111246A
:100DF000EC58FB4F21E0208311829091000531E0F7
:100E0000390F3093000591110CC01092850010929B
:100E100084009091810094609093810023BD01C073
:100E20008FEFCFBFCF9108959FB7F89427E082024C
:100E3000F0011124EC58FB4F138212829FBF81E016
:100E4000818308952FB7F89497E08902F001112467
:100E5000EC58FB4F828193812FBF089527E08202D7
:100E6000C0011124FC01EC58FB4F11820895CF936F
:100E700027E08202C0011124FC01EC58FB4F1082D4
:100E800080910005815080930005CFB7F894809140
:100E90000005811102C00E946306CFBFCF91089563
:100EA00080917304811115C081E0809373041092C6
:100EB000800088E0809381001092820088E391E0B6
:100EC000909389008093880082E080936F000C9457
:100ED000E0060895CF9327E08202C0011124FC01AF
:100EE000EC58FB4F108280910005815080930005E3
:100EF000CFB7F89480910005811102C00E9463066B
:100F0000CFBFCF910895EF92FF920F931F93CF938E
:100F1000DF9300D0CDB7DEB7E82E8A01FFB6F89494
:100F200069837A830E94690669817A8187FD24C07A
:100F300097E08902F0011124EC58FB4FDF0192E0A9
:100F40009D93618311967C936383E482168305836A
:100F50009091000521E0290F2093000591110DC00B
:100F6000109285001092840090918100946090937B
:100F7000810091E093BD01C08FEFFFBE0F900F90F5
:100F8000DF91CF911F910F91FF90EF900895AB01EA
:100F9000BC0180E00C948307AB01BC0181E00C94A0
:100FA0008307FC0111A210A20895FC0181E020A199
:100FB00091A1291380E00895FC0181A18F5F803207
:100FC00011F490E001C0982F81E020A1921380E0FD
:100FD0000895EF92FF921F93CF93DF931F92CDB7A7
:100FE000DEB77C011FB7F89469830E94DC07698132
:100FF00081110BC0F70181A1E80FF11D60838F5FA4
:10100000803209F480E0F70181A31FBF0F90DF91C8
:10101000CF911F91FF90EF900895FC019FB7F89436
:1010200080A121A1821729F08F5F803209F480E02E
:1010300080A39FBF0895FC0120A1E20FF11D8081D4
:101040000895982F9770613049F420E830E0092E18
:1010500002C0359527950A94E2F7822B887F9F5F1F
:10106000892B0895982F977020E830E002C03595BD
:1010700027959A95E2F7682F70E8822F0895FC0172
:1010800021819081922381E009F480E026952183DB
:101090000895782381E009F080E0089582E4809348
:1010A000B0001092B10089E08093B300239A259A92
:1010B0002D980895882371F01092B2008091B000AD
:1010C00080648093B0008091B10084608093B1000F
:1010D0002D9A08958091B1008B7F8093B10080910B
:1010E000B0008F7B8093B0002D980895CF93DF934D
:1010F000EC018991882319F00E94F203FACF8DE068
:101100000E94F2038AE0DF91CF910C94F203CF9218
:10111000DF92EF92FF920F931F93CF93DF938C0197
:10112000D62E0E94D803F82E992787FD90950E940D
:10113000DD08892BB1F3C02EC02FD12FEC2EEC1877
:101140008F2D992787FD90950E94DD08892B79F4D2
:101150008E2D90E0F801E80FF91F1082DF91CF91FA
:101160001F910F91FF90EF90DF90CF900895ED14B5
:1011700078F7F9920E94D803F82EE0CF0E94A403DA
:1011800078940E94D8038093B703F8948091B703B2
:101190000E94D10078948FEB92E00E9453010E944C
:1011A000EC02FDCF85FD0C94EE08806291110C9449
:1011B000EE0881568A51D8F70895803209F09111CE
:1011C0000C94EE0880528F55D8F7089591110C9425
:1011D000EE08803211F08930D1F7089599278827D9
:0611E0000895F894FFCF12
:1011E6004284A4830124C3040274A344C282E36438
:1011F600D443038123146394B4C4FD7D3D1D0D05C2
:0612060085C5E5F5ADFF12
:00000001FF
