:100000000C9434000C9451000C9451000C94510049
:100010000C9451000C9451000C9451000C9451001C
:100020000C9451000C9451000C9451000C9451000C
:100030000C9451000C9451000C9451000C945100FC
:100040000C9451000C9451000C944E010C94160128
:100050000C9451000C9451000C9451000C945100DC
:100060000C9451000C94510011241FBECFEFD8E026
:10007000DEBFCDBF11E0A0E0B1E0EAE7F5E002C0ED
:1000800005900D92AE33B107D9F721E0AEE3B1E0B0
:1000900001C01D92A238B207E1F70E9470020C94D1
:1000A000BB020C940000FC01DC019D012E1B3F0BE8
:1000B0008D918111FACFDF01A20FB31F11978C919F
:1000C00022503109E20FF31F90811082089580952C
:1000D000982F9F7082958F7026EF290F263010F48D
:1000E000995C01C0905D26EF280F263010F4895CE2
:1000F0000895805D0895382F2FEB290F263028F0C2
:1001000020ED290F2A3008F0292F9FEB980F963009
:1001100028F080538A3018F4382F01C0392F822FED
:1001200090E1399F800D11240895EF92FF920F9373
:100130001F93CF93DF938C01DC0180E0ED01C01BA6
:10014000D10B7D019D91992311F0890FF7CF0E946A
:100150006700F7019083F801EC0FFD1F8183128285
:10016000DF91CF911F910F91FF90EF9008950F9322
:100170001F93CF93DF93EC010E9453000E947B00FA
:10018000082FCE010E9495000E947B00182FCE01FF
:100190000E94530081E0011380E0DF91CF911F9115
:1001A0000F910895EF92FF920F931F93CF93DF93D8
:1001B0008C01DC0180E0ED01C01BD10B7D012D9194
:1001C000222349F0822728E09CE8869508F48927B5
:1001D0002A95D9F7F0CF0E946700F7019083F801C4
:1001E000EC0FFD1F81831282DF91CF911F910F9140
:1001F000FF90EF9008950F931F93CF93DF93EC013F
:100200000E9453000E947B00082FCE010E94D20062
:100210000E947B00182FCE010E94530081E0011341
:1002200080E0DF91CF911F910F9108951F920F925F
:100230000FB60F9211242F933F934F935F936F93B9
:100240007F938F939F93AF93BF93EF93FF938EE32F
:1002500091E00E94DC01882331F08091C1008F7D04
:100260008093C1000AC08EE391E00E942202809335
:10027000C6008EE391E00E941402FF91EF91BF91BE
:10028000AF919F918F917F916F915F914F913F912E
:100290002F910F900FBE0F901F9018951F920F92E5
:1002A0000FB60F9211242F933F934F935F936F9349
:1002B0007F938F939F93AF93BF93EF93FF9380E6CA
:1002C00091E00E94E301882319F08091C60006C0E6
:1002D0006091C60080E691E00E94F001FF91EF91ED
:1002E000BF91AF919F918F917F916F915F914F914E
:1002F0003F912F910F900FBE0F901F90189580E6A1
:1003000091E00E94D8018EE391E00E94D8019FB74E
:10031000F8941092C50087E68093C4001092C00044
:1003200086E08093C200E1ECF0E088E18083808188
:10033000806880839FBF08958EE391E00E94DC0176
:100340008823D1F39FB7F8948091C1008F77809371
:10035000C1008091C100877E8093C1009FBF80E66D
:1003600091E00C94D801CF9380E691E00E94DC01EB
:100370008111FACF80E691E00E942202C82F80E628
:1003800091E00E9414028C2FCF91089580E691E0B5
:100390000E94DC0191E089270895682F8EE391E0A7
:1003A0000E94F001E1ECF0E080818062808308959A
:1003B000FC0111A210A20895FC0181E020A191A1ED
:1003C000291380E00895FC0181A18F5F803211F430
:1003D00090E001C0982F81E020A1921380E0089561
:1003E000EF92FF921F93CF93DF931F92CDB7DEB7AB
:1003F0007C011FB7F89469830E94E3016981811130
:100400000BC0F70181A1E80FF11D60838F5F80327F
:1004100009F480E0F70181A31FBF0F90DF91CF9116
:100420001F91FF90EF900895FC019FB7F89480A171
:1004300021A1821729F08F5F803209F480E080A328
:100440009FBF0895FC0120A1E20FF11D8081089556
:10045000CF93DF93EC018991882319F00E94CD019D
:10046000FACF8DE00E94CD018AE0DF91CF910C940C
:10047000CD01CF92DF92EF92FF920F931F93CF9314
:10048000DF938C01D62E0E94B301F82E992787FDA9
:1004900090950E94AF02892BB1F3C02EC02FD12FAF
:1004A000EC2EEC188F2D992787FD90950E94AF02B6
:1004B000892B79F48E2D90E0F801E80FF91F108256
:1004C000DF91CF911F910F91FF90EF90DF90CF9030
:1004D0000895ED1478F7F9920E94B301F82EE0CF59
:1004E000CF93DF93CDB7DEB728970FB6F894DEBF72
:1004F0000FBECDBF0E947F01789480E091E00E9402
:10050000280211E465E0CE0101960E943902CE0175
:1005100001960E942802CE0101960E94D200CE01CF
:1005200001960E94FB00882319F08DE091E002C043
:1005300089E191E00E942802CE0101960E94D2003A
:100540001983CE0101960E94FB00882319F085E2F1
:1005500091E002C081E391E00E942802D3CF803273
:1005600009F091110C94B80280528F55D8F7089574
:0A057000992788270895F894FFCF1B
:10057A0053657269616C206F70656E2E005249472F
:10058A004854206372633120004552524F5220630F
:10059A007263312000524947485420637263322003
:0E05AA00004552524F5220637263322000000F
:00000001FF
